{
    "contractName": "RentHouse",
    "abi": [
        {
            "inputs": [],
            "stateMutability": "nonpayable",
            "type": "constructor"
        },
        {
            "anonymous": false,
            "inputs": [
                {
                    "indexed": true,
                    "internalType": "address",
                    "name": "tenant",
                    "type": "address"
                },
                {
                    "indexed": false,
                    "internalType": "uint256",
                    "name": "depositReturned",
                    "type": "uint256"
                }
            ],
            "name": "ContractEnded",
            "type": "event"
        },
        {
            "anonymous": false,
            "inputs": [
                {
                    "indexed": true,
                    "internalType": "address",
                    "name": "tenant",
                    "type": "address"
                },
                {
                    "indexed": false,
                    "internalType": "uint256",
                    "name": "rentPrice",
                    "type": "uint256"
                },
                {
                    "indexed": false,
                    "internalType": "uint256",
                    "name": "deposit",
                    "type": "uint256"
                }
            ],
            "name": "RentCreated",
            "type": "event"
        },
        {
            "anonymous": false,
            "inputs": [
                {
                    "indexed": true,
                    "internalType": "address",
                    "name": "tenant",
                    "type": "address"
                },
                {
                    "indexed": false,
                    "internalType": "uint256",
                    "name": "amount",
                    "type": "uint256"
                }
            ],
            "name": "RentPaid",
            "type": "event"
        },
        {
            "inputs": [
                {
                    "internalType": "address",
                    "name": "",
                    "type": "address"
                }
            ],
            "name": "contracts",
            "outputs": [
                {
                    "internalType": "address",
                    "name": "landlord",
                    "type": "address"
                },
                {
                    "internalType": "address",
                    "name": "tenant",
                    "type": "address"
                },
                {
                    "internalType": "uint256",
                    "name": "rentPrice",
                    "type": "uint256"
                },
                {
                    "internalType": "uint256",
                    "name": "deposit",
                    "type": "uint256"
                },
                {
                    "internalType": "bool",
                    "name": "isActive",
                    "type": "bool"
                }
            ],
            "stateMutability": "view",
            "type": "function"
        },
        {
            "inputs": [],
            "name": "danhSachHopDong",
            "outputs": [
                {
                    "components": [
                        {
                            "internalType": "address",
                            "name": "landlord",
                            "type": "address"
                        },
                        {
                            "internalType": "address",
                            "name": "tenant",
                            "type": "address"
                        },
                        {
                            "internalType": "uint256",
                            "name": "rentPrice",
                            "type": "uint256"
                        },
                        {
                            "internalType": "uint256",
                            "name": "deposit",
                            "type": "uint256"
                        },
                        {
                            "internalType": "bool",
                            "name": "isActive",
                            "type": "bool"
                        }
                    ],
                    "internalType": "struct RentHouse.RentalContract[]",
                    "name": "",
                    "type": "tuple[]"
                }
            ],
            "stateMutability": "view",
            "type": "function"
        },
        {
            "inputs": [],
            "name": "landlord",
            "outputs": [
                {
                    "internalType": "address",
                    "name": "",
                    "type": "address"
                }
            ],
            "stateMutability": "view",
            "type": "function"
        },
        {
            "inputs": [
                {
                    "internalType": "uint256",
                    "name": "",
                    "type": "uint256"
                }
            ],
            "name": "tenantAddresses",
            "outputs": [
                {
                    "internalType": "address",
                    "name": "",
                    "type": "address"
                }
            ],
            "stateMutability": "view",
            "type": "function"
        },
        {
            "inputs": [],
            "name": "thanhToanThang",
            "outputs": [],
            "stateMutability": "payable",
            "type": "function"
        },
        {
            "inputs": [
                {
                    "internalType": "uint256",
                    "name": "_rentPrice",
                    "type": "uint256"
                }
            ],
            "name": "thuePhong",
            "outputs": [],
            "stateMutability": "payable",
            "type": "function"
        },
        {
            "inputs": [],
            "name": "traPhong",
            "outputs": [],
            "stateMutability": "nonpayable",
            "type": "function"
        },
        {
            "inputs": [],
            "name": "xemHopDong",
            "outputs": [
                {
                    "internalType": "address",
                    "name": "",
                    "type": "address"
                },
                {
                    "internalType": "address",
                    "name": "",
                    "type": "address"
                },
                {
                    "internalType": "uint256",
                    "name": "",
                    "type": "uint256"
                },
                {
                    "internalType": "uint256",
                    "name": "",
                    "type": "uint256"
                },
                {
                    "internalType": "bool",
                    "name": "",
                    "type": "bool"
                }
            ],
            "stateMutability": "view",
            "type": "function"
        },
        {
            "inputs": [
                {
                    "internalType": "address",
                    "name": "_tenant",
                    "type": "address"
                }
            ],
            "name": "xemHopDongKhach",
            "outputs": [
                {
                    "components": [
                        {
                            "internalType": "address",
                            "name": "landlord",
                            "type": "address"
                        },
                        {
                            "internalType": "address",
                            "name": "tenant",
                            "type": "address"
                        },
                        {
                            "internalType": "uint256",
                            "name": "rentPrice",
                            "type": "uint256"
                        },
                        {
                            "internalType": "uint256",
                            "name": "deposit",
                            "type": "uint256"
                        },
                        {
                            "internalType": "bool",
                            "name": "isActive",
                            "type": "bool"
                        }
                    ],
                    "internalType": "struct RentHouse.RentalContract",
                    "name": "",
                    "type": "tuple"
                }
            ],
            "stateMutability": "view",
            "type": "function"
        }
    ],
    "bytecode": "608080604052346026575f80546001600160a01b03191633179055610a6a908161002b8239f35b5f80fdfe60806040526004361015610011575f80fd5b5f3560e01c806301c3ee051461081057806321347d0c146105e25780633246aa36146105a057806369dc9ff31461051c5780636f795f131461037f578063b3fbf9941461023f578063d26d290c146101af578063dc1997ea146101885763f2aa28431461007c575f80fd5b5f36600319011261018457335f52600160205260405f206100a360ff6004830154166108dd565b6100ba60018060a01b036001830154163314610944565b6002810154340361012b57545f9081908190819081906001600160a01b03163415610121575b3491f115610116576040513481527f03b5033869479e8a98af42b272f05933f60489fe9fb43d63e11a6c31f3fa747460203392a2005b6040513d5f823e3d90fd5b6108fc91506100e0565b60405162461bcd60e51b815260206004820152602b60248201527f53e1bb91207469e1bb816e20746875c3aa206e68c3a0206b68c3b46e6720636860448201526ac3ad6e682078c3a163202160a81b6064820152608490fd5b5f80fd5b34610184575f366003190112610184575f546040516001600160a01b039091168152602090f35b34610184575f36600319011261018457335f52600160205260405f206101d36109c2565b81546001600160a01b0390811680835260018401549091166020808401829052600285015460408086018290526003870154606080880182905260049098015460ff1615156080978801819052825196875293860194909452840152938201529081019190915260a090f35b34610184576020366003190112610184576004356001600160a01b038116908190036101845761026d6109fa565b505f546001600160a01b0316330361031c575f52600160205260a060405f2060ff60046102986109c2565b92600180861b038154168452600180861b03600182015416602085015260028101546040850152600381015460608501520154161515608082015261031a60405180926080809160018060a01b03815116845260018060a01b036020820151166020850152604081015160408501526060810151606085015201511515910152565bf35b60405162461bcd60e51b815260206004820152603560248201527f4368e1bb892063c3b3206368e1bba7206e68c3a0206de1bb9b692067e1bb8d6960448201527420c491c6b0e1bba3632068c3a06d206ec3a079202160581b6064820152608490fd5b34610184575f3660031901126101845760025461039b816109e2565b6040519190601f01601f1916820167ffffffffffffffff81118382101761050857604052808252601f196103ce826109e2565b015f5b8181106104f15750505f5b81811061046d57826040518091602082016020835281518091526020604084019201905f5b81811061040f575050500390f35b91935091602060a08261045f60019488516080809160018060a01b03815116845260018060a01b036020820151166020850152604081015160408501526060810151606085015201511515910152565b019401910191849392610401565b806104796001926108b1565b838060a01b0391549060031b1c165f528160205260405f2060ff600461049d6109c2565b835460a087901b879003908116825286850154166020820152600284015460408201526003840154606082015292015416151560808201526104df8286610a20565b526104ea8185610a20565b50016103dc565b6020906104fc6109fa565b828287010152016103d1565b634e487b7160e01b5f52604160045260245ffd5b34610184576020366003190112610184576004356001600160a01b03811690819003610184575f908152600160208181526040928390208054928101546002820154600383015460049093015486516001600160a01b039687168152959092169385019390935293830191909152606082015260ff9091161515608082015260a090f35b3461018457602036600319011261018457600435600254811015610184576105c96020916108b1565b905460405160039290921b1c6001600160a01b03168152f35b60203660031901126101845760043533156107b057335f52600160205260ff600460405f20015416610737575f546001600160a01b03166106216109c2565b90815260046020820191338352604081018481526060820190348252608083019460018652335f52600160205260405f209360018060a01b039060018060a01b03905116166bffffffffffffffffffffffff60a01b85541617845560018060a01b03905116600184019060018060a01b03166bffffffffffffffffffffffff60a01b825416179055516002830155516003820155019051151560ff8019835416911617905560025468010000000000000000811015610508578060016106ea92016002556108b1565b81549060031b9033821b9160018060a01b03901b19161790556040519081523460208201527f5850e5470ebc507618172723ecd826d6483969efcc2a7b41d9263f3e97c6536460403392a2005b60405162461bcd60e51b815260206004820152604560248201527f4869e1bb876e206e67c6b0e1bb9d69206ec3a07920c491c3a32063c3b32068e160448201527fbba37020c491e1bb936e6720c491616e672063c3b26e206869e1bb8775206ce1606482015264bbb163202160d81b608482015260a490fd5b60405162461bcd60e51b815260206004820152603260248201527fc490e1bb8b61206368e1bb892063e1bba761206e67c6b0e1bb9d6920746875c3604482015271aa207068e1baa369206b68c3a1632030202160701b6064820152608490fd5b34610184575f36600319011261018457335f526001602052600360405f2060048101805461084060ff82166108dd565b61085760018060a01b036001850154163314610944565b60ff19169055015f81549155805f81156108a8575b5f80809381933390f115610116576040519081527fec36f3f19a19c876b0b60e756b4b095c678a8a527691a7a7cb7ca0fca0b37b0260203392a2005b506108fc61086c565b6002548110156108c95760025f5260205f2001905f90565b634e487b7160e01b5f52603260045260245ffd5b156108e457565b60405162461bcd60e51b815260206004820152603260248201527f48e1bba37020c491e1bb936e6720746875c3aa206869e1bb876e206b68c3b46e6044820152716720686fe1baa17420c491e1bb996e67202160701b6064820152608490fd5b1561094b57565b60405162461bcd60e51b815260206004820152604360248201527f4368e1bb89206e67c6b0e1bb9d6920746875c3aa206e68c3a0206de1bb9b692060448201527f63c3b3207468e1bb83207472e1baa3207469e1bb816e20746875c3aa206e68c3606482015262a0202160e81b608482015260a490fd5b6040519060a0820182811067ffffffffffffffff82111761050857604052565b67ffffffffffffffff81116105085760051b60200190565b610a026109c2565b905f82525f60208301525f60408301525f60608301525f6080830152565b80518210156108c95760209160051b01019056fea2646970667358221220d1409213b9b4183e9f2d745c0c286743407749a13608f6cc4d993366bf53912764736f6c63430008220033",
    "sourcePath": "c:/Users/DELL/Desktop/Baitap_c1/dApp/dApp-QuanLyThueNha/packages/contracts/contracts/RentHouse.sol",
    "compiler": {
        "name": "solc",
        "version": "0.8.34+commit.80d5c536"
    },
    "functionHashes": {
        "contracts(address)": "69dc9ff3",
        "danhSachHopDong()": "6f795f13",
        "landlord()": "dc1997ea",
        "tenantAddresses(uint256)": "3246aa36",
        "thanhToanThang()": "f2aa2843",
        "thuePhong(uint256)": "21347d0c",
        "traPhong()": "01c3ee05",
        "xemHopDong()": "d26d290c",
        "xemHopDongKhach(address)": "b3fbf994"
    },
    "gasEstimates": {
        "creation": {
            "codeDepositCost": "533200",
            "executionCost": "24810",
            "totalCost": "558010"
        },
        "external": {
            "contracts(address)": "11018",
            "danhSachHopDong()": "infinite",
            "landlord()": "2425",
            "tenantAddresses(uint256)": "6669",
            "thanhToanThang()": "infinite",
            "thuePhong(uint256)": "174119",
            "traPhong()": "infinite",
            "xemHopDong()": "11195",
            "xemHopDongKhach(address)": "infinite"
        }
    }
}