{
  "_format": "hh-sol-artifact-1",
  "contractName": "RentHouse",
  "sourceName": "contracts/RentHouse.sol",
  "abi": [
    {
      "anonymous": false,
      "inputs": [
        {
          "indexed": true,
          "internalType": "uint256",
          "name": "contractId",
          "type": "uint256"
        },
        {
          "indexed": true,
          "internalType": "address",
          "name": "tenant",
          "type": "address"
        },
        {
          "indexed": false,
          "internalType": "uint256",
          "name": "depositReturned",
          "type": "uint256"
        }
      ],
      "name": "ContractEnded",
      "type": "event"
    },
    {
      "anonymous": false,
      "inputs": [
        {
          "indexed": true,
          "internalType": "uint256",
          "name": "contractId",
          "type": "uint256"
        },
        {
          "indexed": true,
          "internalType": "address",
          "name": "tenant",
          "type": "address"
        },
        {
          "indexed": false,
          "internalType": "uint256",
          "name": "roomId",
          "type": "uint256"
        }
      ],
      "name": "RentApproved",
      "type": "event"
    },
    {
      "anonymous": false,
      "inputs": [
        {
          "indexed": true,
          "internalType": "uint256",
          "name": "contractId",
          "type": "uint256"
        },
        {
          "indexed": true,
          "internalType": "address",
          "name": "tenant",
          "type": "address"
        },
        {
          "indexed": false,
          "internalType": "uint256",
          "name": "amount",
          "type": "uint256"
        },
        {
          "indexed": false,
          "internalType": "uint256",
          "name": "thangNam",
          "type": "uint256"
        }
      ],
      "name": "RentPaid",
      "type": "event"
    },
    {
      "anonymous": false,
      "inputs": [
        {
          "indexed": true,
          "internalType": "uint256",
          "name": "contractId",
          "type": "uint256"
        },
        {
          "indexed": true,
          "internalType": "address",
          "name": "tenant",
          "type": "address"
        },
        {
          "indexed": false,
          "internalType": "uint256",
          "name": "depositReturned",
          "type": "uint256"
        }
      ],
      "name": "RentRejected",
      "type": "event"
    },
    {
      "anonymous": false,
      "inputs": [
        {
          "indexed": true,
          "internalType": "uint256",
          "name": "contractId",
          "type": "uint256"
        },
        {
          "indexed": true,
          "internalType": "address",
          "name": "tenant",
          "type": "address"
        },
        {
          "indexed": true,
          "internalType": "address",
          "name": "landlord",
          "type": "address"
        },
        {
          "indexed": false,
          "internalType": "uint256",
          "name": "roomId",
          "type": "uint256"
        },
        {
          "indexed": false,
          "internalType": "uint256",
          "name": "deposit",
          "type": "uint256"
        }
      ],
      "name": "RentRequested",
      "type": "event"
    },
    {
      "inputs": [],
      "name": "contractCount",
      "outputs": [
        {
          "internalType": "uint256",
          "name": "",
          "type": "uint256"
        }
      ],
      "stateMutability": "view",
      "type": "function"
    },
    {
      "inputs": [
        {
          "internalType": "uint256",
          "name": "",
          "type": "uint256"
        }
      ],
      "name": "contracts",
      "outputs": [
        {
          "internalType": "uint256",
          "name": "id",
          "type": "uint256"
        },
        {
          "internalType": "uint256",
          "name": "roomId",
          "type": "uint256"
        },
        {
          "internalType": "address",
          "name": "landlord",
          "type": "address"
        },
        {
          "internalType": "address",
          "name": "tenant",
          "type": "address"
        },
        {
          "internalType": "uint256",
          "name": "rentPrice",
          "type": "uint256"
        },
        {
          "internalType": "uint256",
          "name": "deposit",
          "type": "uint256"
        },
        {
          "internalType": "enum RentHouse.Status",
          "name": "status",
          "type": "uint8"
        },
        {
          "internalType": "uint256",
          "name": "nextPaymentDueDate",
          "type": "uint256"
        }
      ],
      "stateMutability": "view",
      "type": "function"
    },
    {
      "inputs": [],
      "name": "danhSachChoDuyet",
      "outputs": [
        {
          "components": [
            {
              "internalType": "uint256",
              "name": "id",
              "type": "uint256"
            },
            {
              "internalType": "uint256",
              "name": "roomId",
              "type": "uint256"
            },
            {
              "internalType": "address",
              "name": "landlord",
              "type": "address"
            },
            {
              "internalType": "address",
              "name": "tenant",
              "type": "address"
            },
            {
              "internalType": "uint256",
              "name": "rentPrice",
              "type": "uint256"
            },
            {
              "internalType": "uint256",
              "name": "deposit",
              "type": "uint256"
            },
            {
              "internalType": "enum RentHouse.Status",
              "name": "status",
              "type": "uint8"
            },
            {
              "internalType": "uint256",
              "name": "nextPaymentDueDate",
              "type": "uint256"
            }
          ],
          "internalType": "struct RentHouse.RentalContract[]",
          "name": "",
          "type": "tuple[]"
        }
      ],
      "stateMutability": "view",
      "type": "function"
    },
    {
      "inputs": [],
      "name": "danhSachHopDong",
      "outputs": [
        {
          "components": [
            {
              "internalType": "uint256",
              "name": "id",
              "type": "uint256"
            },
            {
              "internalType": "uint256",
              "name": "roomId",
              "type": "uint256"
            },
            {
              "internalType": "address",
              "name": "landlord",
              "type": "address"
            },
            {
              "internalType": "address",
              "name": "tenant",
              "type": "address"
            },
            {
              "internalType": "uint256",
              "name": "rentPrice",
              "type": "uint256"
            },
            {
              "internalType": "uint256",
              "name": "deposit",
              "type": "uint256"
            },
            {
              "internalType": "enum RentHouse.Status",
              "name": "status",
              "type": "uint8"
            },
            {
              "internalType": "uint256",
              "name": "nextPaymentDueDate",
              "type": "uint256"
            }
          ],
          "internalType": "struct RentHouse.RentalContract[]",
          "name": "",
          "type": "tuple[]"
        }
      ],
      "stateMutability": "view",
      "type": "function"
    },
    {
      "inputs": [
        {
          "internalType": "uint256",
          "name": "_contractId",
          "type": "uint256"
        }
      ],
      "name": "duyetThuePhong",
      "outputs": [],
      "stateMutability": "nonpayable",
      "type": "function"
    },
    {
      "inputs": [
        {
          "internalType": "uint256",
          "name": "",
          "type": "uint256"
        },
        {
          "internalType": "uint256",
          "name": "",
          "type": "uint256"
        }
      ],
      "name": "paymentTracking",
      "outputs": [
        {
          "internalType": "bool",
          "name": "",
          "type": "bool"
        }
      ],
      "stateMutability": "view",
      "type": "function"
    },
    {
      "inputs": [
        {
          "internalType": "uint256",
          "name": "_contractId",
          "type": "uint256"
        },
        {
          "internalType": "uint256",
          "name": "_thangNam",
          "type": "uint256"
        }
      ],
      "name": "thanhToanThang",
      "outputs": [],
      "stateMutability": "payable",
      "type": "function"
    },
    {
      "inputs": [
        {
          "internalType": "uint256",
          "name": "_contractId",
          "type": "uint256"
        }
      ],
      "name": "thuHoiCocDoViPham",
      "outputs": [],
      "stateMutability": "nonpayable",
      "type": "function"
    },
    {
      "inputs": [
        {
          "internalType": "uint256",
          "name": "_roomId",
          "type": "uint256"
        },
        {
          "internalType": "uint256",
          "name": "_rentPrice",
          "type": "uint256"
        },
        {
          "internalType": "address",
          "name": "_landlord",
          "type": "address"
        }
      ],
      "name": "thuePhong",
      "outputs": [],
      "stateMutability": "payable",
      "type": "function"
    },
    {
      "inputs": [
        {
          "internalType": "uint256",
          "name": "_contractId",
          "type": "uint256"
        }
      ],
      "name": "traPhong",
      "outputs": [],
      "stateMutability": "nonpayable",
      "type": "function"
    },
    {
      "inputs": [
        {
          "internalType": "uint256",
          "name": "_contractId",
          "type": "uint256"
        }
      ],
      "name": "tuChoiThuePhong",
      "outputs": [],
      "stateMutability": "nonpayable",
      "type": "function"
    },
    {
      "inputs": [],
      "name": "xemHopDong",
      "outputs": [
        {
          "components": [
            {
              "internalType": "uint256",
              "name": "id",
              "type": "uint256"
            },
            {
              "internalType": "uint256",
              "name": "roomId",
              "type": "uint256"
            },
            {
              "internalType": "address",
              "name": "landlord",
              "type": "address"
            },
            {
              "internalType": "address",
              "name": "tenant",
              "type": "address"
            },
            {
              "internalType": "uint256",
              "name": "rentPrice",
              "type": "uint256"
            },
            {
              "internalType": "uint256",
              "name": "deposit",
              "type": "uint256"
            },
            {
              "internalType": "enum RentHouse.Status",
              "name": "status",
              "type": "uint8"
            },
            {
              "internalType": "uint256",
              "name": "nextPaymentDueDate",
              "type": "uint256"
            }
          ],
          "internalType": "struct RentHouse.RentalContract[]",
          "name": "",
          "type": "tuple[]"
        }
      ],
      "stateMutability": "view",
      "type": "function"
    }
  ],
  "bytecode": "0x608060405234801561001057600080fd5b506127e8806100206000396000f3fe6080604052600436106100a75760003560e01c80638639fd18116100645780638639fd18146101a55780638736381a146101d0578063baa77632146101fb578063c2c300f414610238578063d26d290c14610261578063fccc420a1461028c576100a7565b8063015a5b6d146100ac5780632ce700ea146100d5578063474da79a146100f157806363aacffc146101355780636f795f131461015e578063800e683414610189575b600080fd5b3480156100b857600080fd5b506100d360048036038101906100ce9190611a14565b6102b5565b005b6100ef60048036038101906100ea9190611a41565b6105c8565b005b3480156100fd57600080fd5b5061011860048036038101906101139190611a14565b610923565b60405161012c989796959493929190611b48565b60405180910390f35b34801561014157600080fd5b5061015c60048036038101906101579190611a14565b6109b8565b005b34801561016a57600080fd5b50610173610c76565b6040516101809190611d45565b60405180910390f35b6101a3600480360381019061019e9190611d93565b610c85565b005b3480156101b157600080fd5b506101ba610f82565b6040516101c79190611d45565b60405180910390f35b3480156101dc57600080fd5b506101e5611241565b6040516101f29190611de6565b60405180910390f35b34801561020757600080fd5b50610222600480360381019061021d9190611a41565b611247565b60405161022f9190611e1c565b60405180910390f35b34801561024457600080fd5b5061025f600480360381019061025a9190611a14565b611276565b005b34801561026d57600080fd5b5061027661146a565b6040516102839190611d45565b60405180910390f35b34801561029857600080fd5b506102b360048036038101906102ae9190611a14565b611652565b005b803373ffffffffffffffffffffffffffffffffffffffff166001600083815260200190815260200160002060020160009054906101000a900473ffffffffffffffffffffffffffffffffffffffff1673ffffffffffffffffffffffffffffffffffffffff161461035a576040517f08c379a000000000000000000000000000000000000000000000000000000000815260040161035190611eba565b60405180910390fd5b60006001600084815260200190815260200160002090506001600481111561038557610384611ad1565b5b8160060160009054906101000a900460ff1660048111156103a9576103a8611ad1565b5b146103e9576040517f08c379a00000000000000000000000000000000000000000000000000000000081526004016103e090611f26565b60405180910390fd5b6206978081600701546103fc9190611f75565b421161043d576040517f08c379a00000000000000000000000000000000000000000000000000000000081526004016104349061201b565b60405180910390fd5b60048160060160006101000a81548160ff0219169083600481111561046557610464611ad1565b5b02179055506000816005015490506000826005018190555060008260020160009054906101000a900473ffffffffffffffffffffffffffffffffffffffff1673ffffffffffffffffffffffffffffffffffffffff16826040516104c79061206c565b60006040518083038185875af1925050503d8060008114610504576040519150601f19603f3d011682016040523d82523d6000602084013e610509565b606091505b505090508061054d576040517f08c379a0000000000000000000000000000000000000000000000000000000008152600401610544906120f3565b60405180910390fd5b8260030160009054906101000a900473ffffffffffffffffffffffffffffffffffffffff1673ffffffffffffffffffffffffffffffffffffffff16857ffd6e1f6acced2c888fbc76ac6e35b9cec740f2b668ea30b68b09374e94cc30f660006040516105b99190612158565b60405180910390a35050505050565b6000600160008481526020019081526020016000209050600160048111156105f3576105f2611ad1565b5b8160060160009054906101000a900460ff16600481111561061757610616611ad1565b5b14610657576040517f08c379a000000000000000000000000000000000000000000000000000000000815260040161064e90611f26565b60405180910390fd5b8060030160009054906101000a900473ffffffffffffffffffffffffffffffffffffffff1673ffffffffffffffffffffffffffffffffffffffff163373ffffffffffffffffffffffffffffffffffffffff16146106e9576040517f08c379a00000000000000000000000000000000000000000000000000000000081526004016106e0906121e5565b60405180910390fd5b8060040154341461072f576040517f08c379a000000000000000000000000000000000000000000000000000000000815260040161072690612251565b60405180910390fd5b60026000848152602001908152602001600020600083815260200190815260200160002060009054906101000a900460ff16156107a1576040517f08c379a0000000000000000000000000000000000000000000000000000000008152600401610798906122bd565b60405180910390fd5b600160026000858152602001908152602001600020600084815260200190815260200160002060006101000a81548160ff02191690831515021790555062278d008160070160008282546107f59190611f75565b9250508190555060008160020160009054906101000a900473ffffffffffffffffffffffffffffffffffffffff1673ffffffffffffffffffffffffffffffffffffffff16346040516108469061206c565b60006040518083038185875af1925050503d8060008114610883576040519150601f19603f3d011682016040523d82523d6000602084013e610888565b606091505b50509050806108cc576040517f08c379a00000000000000000000000000000000000000000000000000000000081526004016108c39061234f565b60405180910390fd5b3373ffffffffffffffffffffffffffffffffffffffff16847fe7b793c2d375aa5934e16873f97e647671990418e9fead32b65a4d41e8fb4d1d348660405161091592919061236f565b60405180910390a350505050565b60016020528060005260406000206000915090508060000154908060010154908060020160009054906101000a900473ffffffffffffffffffffffffffffffffffffffff16908060030160009054906101000a900473ffffffffffffffffffffffffffffffffffffffff16908060040154908060050154908060060160009054906101000a900460ff16908060070154905088565b803373ffffffffffffffffffffffffffffffffffffffff166001600083815260200190815260200160002060020160009054906101000a900473ffffffffffffffffffffffffffffffffffffffff1673ffffffffffffffffffffffffffffffffffffffff1614610a5d576040517f08c379a0000000000000000000000000000000000000000000000000000000008152600401610a5490611eba565b60405180910390fd5b600060016000848152602001908152602001600020905060006004811115610a8857610a87611ad1565b5b8160060160009054906101000a900460ff166004811115610aac57610aab611ad1565b5b14610aec576040517f08c379a0000000000000000000000000000000000000000000000000000000008152600401610ae3906123e4565b60405180910390fd5b60038160060160006101000a81548160ff02191690836004811115610b1457610b13611ad1565b5b02179055506000816005015490506000826005018190555060008260030160009054906101000a900473ffffffffffffffffffffffffffffffffffffffff1673ffffffffffffffffffffffffffffffffffffffff1682604051610b769061206c565b60006040518083038185875af1925050503d8060008114610bb3576040519150601f19603f3d011682016040523d82523d6000602084013e610bb8565b606091505b5050905080610bfc576040517f08c379a0000000000000000000000000000000000000000000000000000000008152600401610bf390612450565b60405180910390fd5b8260030160009054906101000a900473ffffffffffffffffffffffffffffffffffffffff1673ffffffffffffffffffffffffffffffffffffffff16857f84fb0892cf90a88bdaa6abd0f35e17d31e9d9ea944472b51fd388c6300ccc9c884604051610c679190611de6565b60405180910390a35050505050565b6060610c8061146a565b905090565b60008311610cc8576040517f08c379a0000000000000000000000000000000000000000000000000000000008152600401610cbf906124bc565b60405180910390fd5b8073ffffffffffffffffffffffffffffffffffffffff163373ffffffffffffffffffffffffffffffffffffffff1603610d36576040517f08c379a0000000000000000000000000000000000000000000000000000000008152600401610d2d9061254e565b60405180910390fd5b60003411610d79576040517f08c379a0000000000000000000000000000000000000000000000000000000008152600401610d70906125ba565b60405180910390fd5b600080815480929190610d8b906125da565b919050555060405180610100016040528060005481526020018481526020018273ffffffffffffffffffffffffffffffffffffffff1681526020013373ffffffffffffffffffffffffffffffffffffffff16815260200183815260200134815260200160006004811115610e0257610e01611ad1565b5b815260200160008152506001600080548152602001908152602001600020600082015181600001556020820151816001015560408201518160020160006101000a81548173ffffffffffffffffffffffffffffffffffffffff021916908373ffffffffffffffffffffffffffffffffffffffff16021790555060608201518160030160006101000a81548173ffffffffffffffffffffffffffffffffffffffff021916908373ffffffffffffffffffffffffffffffffffffffff1602179055506080820151816004015560a0820151816005015560c08201518160060160006101000a81548160ff02191690836004811115610f0157610f00611ad1565b5b021790555060e082015181600701559050508073ffffffffffffffffffffffffffffffffffffffff163373ffffffffffffffffffffffffffffffffffffffff166000547f2d5862d72b93fd490a3c0e95168854b2341b0660ce8d450b8a812500f0c9334a8634604051610f7592919061236f565b60405180910390a4505050565b6060600080600190505b60005481116110065760006004811115610fa957610fa8611ad1565b5b6001600083815260200190815260200160002060060160009054906101000a900460ff166004811115610fdf57610fde611ad1565b5b03610ff3578180610fef906125da565b9250505b8080610ffe906125da565b915050610f8c565b5060008167ffffffffffffffff81111561102357611022612622565b5b60405190808252806020026020018201604052801561105c57816020015b611049611956565b8152602001906001900390816110415790505b509050600080600190505b6000548111611237576000600481111561108457611083611ad1565b5b6001600083815260200190815260200160002060060160009054906101000a900460ff1660048111156110ba576110b9611ad1565b5b0361122457600160008281526020019081526020016000206040518061010001604052908160008201548152602001600182015481526020016002820160009054906101000a900473ffffffffffffffffffffffffffffffffffffffff1673ffffffffffffffffffffffffffffffffffffffff1673ffffffffffffffffffffffffffffffffffffffff1681526020016003820160009054906101000a900473ffffffffffffffffffffffffffffffffffffffff1673ffffffffffffffffffffffffffffffffffffffff1673ffffffffffffffffffffffffffffffffffffffff16815260200160048201548152602001600582015481526020016006820160009054906101000a900460ff1660048111156111d7576111d6611ad1565b5b60048111156111e9576111e8611ad1565b5b815260200160078201548152505083838151811061120a57611209612651565b5b60200260200101819052508180611220906125da565b9250505b808061122f906125da565b915050611067565b5081935050505090565b60005481565b60026020528160005260406000206020528060005260406000206000915091509054906101000a900460ff1681565b803373ffffffffffffffffffffffffffffffffffffffff166001600083815260200190815260200160002060020160009054906101000a900473ffffffffffffffffffffffffffffffffffffffff1673ffffffffffffffffffffffffffffffffffffffff161461131b576040517f08c379a000000000000000000000000000000000000000000000000000000000815260040161131290611eba565b60405180910390fd5b60006001600084815260200190815260200160002090506000600481111561134657611345611ad1565b5b8160060160009054906101000a900460ff16600481111561136a57611369611ad1565b5b146113aa576040517f08c379a00000000000000000000000000000000000000000000000000000000081526004016113a1906126f2565b60405180910390fd5b60018160060160006101000a81548160ff021916908360048111156113d2576113d1611ad1565b5b021790555062278d00426113e69190611f75565b81600701819055508060030160009054906101000a900473ffffffffffffffffffffffffffffffffffffffff1673ffffffffffffffffffffffffffffffffffffffff16837fa73e80602b43138aef221aa39b2c23d0d017e3a7416cafe6b8db13b7ad8b77ec836001015460405161145d9190611de6565b60405180910390a3505050565b60606000805467ffffffffffffffff81111561148957611488612622565b5b6040519080825280602002602001820160405280156114c257816020015b6114af611956565b8152602001906001900390816114a75790505b5090506000600190505b600054811161164a57600160008281526020019081526020016000206040518061010001604052908160008201548152602001600182015481526020016002820160009054906101000a900473ffffffffffffffffffffffffffffffffffffffff1673ffffffffffffffffffffffffffffffffffffffff1673ffffffffffffffffffffffffffffffffffffffff1681526020016003820160009054906101000a900473ffffffffffffffffffffffffffffffffffffffff1673ffffffffffffffffffffffffffffffffffffffff1673ffffffffffffffffffffffffffffffffffffffff16815260200160048201548152602001600582015481526020016006820160009054906101000a900460ff1660048111156115ed576115ec611ad1565b5b60048111156115ff576115fe611ad1565b5b81526020016007820154815250508260018361161b9190612712565b8151811061162c5761162b612651565b5b60200260200101819052508080611642906125da565b9150506114cc565b508091505090565b60006001600083815260200190815260200160002090506001600481111561167d5761167c611ad1565b5b8160060160009054906101000a900460ff1660048111156116a1576116a0611ad1565b5b146116e1576040517f08c379a00000000000000000000000000000000000000000000000000000000081526004016116d890611f26565b60405180910390fd5b8060030160009054906101000a900473ffffffffffffffffffffffffffffffffffffffff1673ffffffffffffffffffffffffffffffffffffffff163373ffffffffffffffffffffffffffffffffffffffff16148061178e57508060020160009054906101000a900473ffffffffffffffffffffffffffffffffffffffff1673ffffffffffffffffffffffffffffffffffffffff163373ffffffffffffffffffffffffffffffffffffffff16145b6117cd576040517f08c379a00000000000000000000000000000000000000000000000000000000081526004016117c490612792565b60405180910390fd5b60028160060160006101000a81548160ff021916908360048111156117f5576117f4611ad1565b5b02179055506000816005015490506000826005018190555060008260030160009054906101000a900473ffffffffffffffffffffffffffffffffffffffff1673ffffffffffffffffffffffffffffffffffffffff16826040516118579061206c565b60006040518083038185875af1925050503d8060008114611894576040519150601f19603f3d011682016040523d82523d6000602084013e611899565b606091505b50509050806118dd576040517f08c379a00000000000000000000000000000000000000000000000000000000081526004016118d490612450565b60405180910390fd5b8260030160009054906101000a900473ffffffffffffffffffffffffffffffffffffffff1673ffffffffffffffffffffffffffffffffffffffff16847ffd6e1f6acced2c888fbc76ac6e35b9cec740f2b668ea30b68b09374e94cc30f6846040516119489190611de6565b60405180910390a350505050565b6040518061010001604052806000815260200160008152602001600073ffffffffffffffffffffffffffffffffffffffff168152602001600073ffffffffffffffffffffffffffffffffffffffff1681526020016000815260200160008152602001600060048111156119cc576119cb611ad1565b5b8152602001600081525090565b600080fd5b6000819050919050565b6119f1816119de565b81146119fc57600080fd5b50565b600081359050611a0e816119e8565b92915050565b600060208284031215611a2a57611a296119d9565b5b6000611a38848285016119ff565b91505092915050565b60008060408385031215611a5857611a576119d9565b5b6000611a66858286016119ff565b9250506020611a77858286016119ff565b9150509250929050565b611a8a816119de565b82525050565b600073ffffffffffffffffffffffffffffffffffffffff82169050919050565b6000611abb82611a90565b9050919050565b611acb81611ab0565b82525050565b7f4e487b7100000000000000000000000000000000000000000000000000000000600052602160045260246000fd5b60058110611b1157611b10611ad1565b5b50565b6000819050611b2282611b00565b919050565b6000611b3282611b14565b9050919050565b611b4281611b27565b82525050565b600061010082019050611b5e600083018b611a81565b611b6b602083018a611a81565b611b786040830189611ac2565b611b856060830188611ac2565b611b926080830187611a81565b611b9f60a0830186611a81565b611bac60c0830185611b39565b611bb960e0830184611a81565b9998505050505050505050565b600081519050919050565b600082825260208201905092915050565b6000819050602082019050919050565b611bfb816119de565b82525050565b611c0a81611ab0565b82525050565b611c1981611b27565b82525050565b61010082016000820151611c366000850182611bf2565b506020820151611c496020850182611bf2565b506040820151611c5c6040850182611c01565b506060820151611c6f6060850182611c01565b506080820151611c826080850182611bf2565b5060a0820151611c9560a0850182611bf2565b5060c0820151611ca860c0850182611c10565b5060e0820151611cbb60e0850182611bf2565b50505050565b6000611ccd8383611c1f565b6101008301905092915050565b6000602082019050919050565b6000611cf282611bc6565b611cfc8185611bd1565b9350611d0783611be2565b8060005b83811015611d38578151611d1f8882611cc1565b9750611d2a83611cda565b925050600181019050611d0b565b5085935050505092915050565b60006020820190508181036000830152611d5f8184611ce7565b905092915050565b611d7081611ab0565b8114611d7b57600080fd5b50565b600081359050611d8d81611d67565b92915050565b600080600060608486031215611dac57611dab6119d9565b5b6000611dba868287016119ff565b9350506020611dcb868287016119ff565b9250506040611ddc86828701611d7e565b9150509250925092565b6000602082019050611dfb6000830184611a81565b92915050565b60008115159050919050565b611e1681611e01565b82525050565b6000602082019050611e316000830184611e0d565b92915050565b600082825260208201905092915050565b7f42616e206b686f6e67207068616920636875206e68612063756120686f70206460008201527f6f6e67206e617921000000000000000000000000000000000000000000000000602082015250565b6000611ea4602883611e37565b9150611eaf82611e48565b604082019050919050565b60006020820190508181036000830152611ed381611e97565b9050919050565b7f486f7020646f6e67206b686f6e6720686f617420646f6e672100000000000000600082015250565b6000611f10601983611e37565b9150611f1b82611eda565b602082019050919050565b60006020820190508181036000830152611f3f81611f03565b9050919050565b7f4e487b7100000000000000000000000000000000000000000000000000000000600052601160045260246000fd5b6000611f80826119de565b9150611f8b836119de565b9250828201905080821115611fa357611fa2611f46565b5b92915050565b7f436875612064656e2068616e20686f61632063687561207175612074686f692060008201527f68616e20616e2068616e2035206e676179210000000000000000000000000000602082015250565b6000612005603283611e37565b915061201082611fa9565b604082019050919050565b6000602082019050818103600083015261203481611ff8565b9050919050565b600081905092915050565b50565b600061205660008361203b565b915061206182612046565b600082019050919050565b600061207782612049565b9150819050919050565b7f43687579656e207469656e20636f632063686f20636875206e6861207468617460008201527f2062616921000000000000000000000000000000000000000000000000000000602082015250565b60006120dd602583611e37565b91506120e882612081565b604082019050919050565b6000602082019050818103600083015261210c816120d0565b9050919050565b6000819050919050565b6000819050919050565b600061214261213d61213884612113565b61211d565b6119de565b9050919050565b61215281612127565b82525050565b600060208201905061216d6000830184612149565b92915050565b7f436869206e67756f692074687565206d6f6920636f20746865207468616e682060008201527f746f616e21000000000000000000000000000000000000000000000000000000602082015250565b60006121cf602583611e37565b91506121da82612173565b604082019050919050565b600060208201905081810360008301526121fe816121c2565b9050919050565b7f53616920736f207469656e207468756521000000000000000000000000000000600082015250565b600061223b601183611e37565b915061224682612205565b602082019050919050565b6000602082019050818103600083015261226a8161222e565b9050919050565b7f5468616e67206e6179206461207468616e6820746f616e210000000000000000600082015250565b60006122a7601883611e37565b91506122b282612271565b602082019050919050565b600060208201905081810360008301526122d68161229a565b9050919050565b7f43687579656e207469656e2063686f20636875206e686120746861742062616960008201527f2100000000000000000000000000000000000000000000000000000000000000602082015250565b6000612339602183611e37565b9150612344826122dd565b604082019050919050565b600060208201905081810360008301526123688161232c565b9050919050565b60006040820190506123846000830185611a81565b6123916020830184611a81565b9392505050565b7f5472616e672074686169206b686f6e6720686f70206c65210000000000000000600082015250565b60006123ce601883611e37565b91506123d982612398565b602082019050919050565b600060208201905081810360008301526123fd816123c1565b9050919050565b7f486f616e207469656e20636f6320746861742062616921000000000000000000600082015250565b600061243a601783611e37565b915061244582612404565b602082019050919050565b600060208201905081810360008301526124698161242d565b9050919050565b7f50686f6e67206b686f6e6720686f70206c652100000000000000000000000000600082015250565b60006124a6601383611e37565b91506124b182612470565b602082019050919050565b600060208201905081810360008301526124d581612499565b9050919050565b7f436875206e6861206b686f6e672074686520746875652070686f6e672063756160008201527f206368696e68206d696e68210000000000000000000000000000000000000000602082015250565b6000612538602c83611e37565b9150612543826124dc565b604082019050919050565b600060208201905081810360008301526125678161252b565b9050919050565b7f59657520636175207469656e2064617420636f63210000000000000000000000600082015250565b60006125a4601583611e37565b91506125af8261256e565b602082019050919050565b600060208201905081810360008301526125d381612597565b9050919050565b60006125e5826119de565b91507fffffffffffffffffffffffffffffffffffffffffffffffffffffffffffffffff820361261757612616611f46565b5b600182019050919050565b7f4e487b7100000000000000000000000000000000000000000000000000000000600052604160045260246000fd5b7f4e487b7100000000000000000000000000000000000000000000000000000000600052603260045260246000fd5b7f486f7020646f6e67206b686f6e67206f207472616e6720746861692063686f2060008201527f6475796574210000000000000000000000000000000000000000000000000000602082015250565b60006126dc602683611e37565b91506126e782612680565b604082019050919050565b6000602082019050818103600083015261270b816126cf565b9050919050565b600061271d826119de565b9150612728836119de565b92508282039050818111156127405761273f611f46565b5b92915050565b7f4b686f6e6720636f20717579656e210000000000000000000000000000000000600082015250565b600061277c600f83611e37565b915061278782612746565b602082019050919050565b600060208201905081810360008301526127ab8161276f565b905091905056fea26469706673582212209fba9740f58027f24d0c8f80af15b9cb1389bdca119bf6eb6075790065d654f864736f6c63430008180033",
  "linkReferences": {},
  "deployedLinkReferences": {}
}